:04000000803199288A
:10000800803120007F08B4000B1D95280B117D0856
:100018002000B1000130B135FF3E031D0F283135F6
:10002800563EB2003208FC007D08093E8400863046
:100038000318013E8500000881310121803181319A
:100048002921803181314E2180317D080B3E840089
:1000580086300318013E8500000881310121803176
:100068008131292180318631F92680318631452632
:10007800803101302000B1003108FD077D08023AC7
:10008800031D0B28FD010130DE02031D8A281E30E6
:10009800B1003108DE007D08B1000130B135FF3E06
:1000A800031D52283135563EB2003208FC007C0848
:1000B80086008701403FB100413FB200423FB30094
:1000C8000130B336B20CB10C890B65287D35513E31
:1000D800860087013108C03F3208C13F7C0886008E
:1000E8008701003081054131003081054131F03010
:1000F80081057E310130B1003108FD077D08023AE3
:10010800031D4F288131632120005514200003105E
:100118006F0C0318B43AEF003F392000950195079A
:100128000B1120003408FF00090080319B28FC01D6
:10013800FD014D308400003085001830FE0000308D
:10014800FF0081313721803165308400003085001F
:100158000A30FE000030FF008131372180318131C3
:1001680075218031A100813176218031A20087314B
:0A017800FF27EF0020008E313A2E21
:10020000002981318207032987318C2F8731692F9B
:100210008731462F8731232F38302000B800380827
:10022000BB0020003708B9003608B800B60A031929
:10023000B70A38088400390885000008BA003A086F
:10024000BC00BC08031908003C08813159218131E8
:100250001129FF30F00070082000ED0021009D1CE6
:10026000080001302000ED02031908002E29640067
:10027000800101310130FE020030FF3B7F087E0427
:1002800003190034382923001D1233309B001E113E
:100290009F111E129D171D169E16080021001C0896
:1002A0002000EC01EC0721001B082000EB01EB070C
:1002B00008002000B50023009E1C5B2920003508A3
:1002C00023009A000800FC01FD011E30F0007008B8
:1002D0002000DE0008002000911E6B292300190871
:0E02E0000800F0302100990008000134363487
:1004000000348034803481348234833483348434BF
:100410008534863487348734883489348A348A34FE
:100420008B348C348D348E348E348F3490349134BC
:10043000913492349334943495349534963497347B
:100440009834983499349A349B349B349C349D343A
:100450009E349F349F34A034A134A234A234A334F8
:10046000A434A534A534A634A734A834A834A934B8
:10047000AA34AA34AB34AC34AD34AD34AE34AF347A
:10048000B034B034B134B234B234B334B434B5343B
:10049000B534B634B734B734B834B934BA34BA34FE
:1004A000BB34BC34BC34BD34BE34BE34BF34C034C1
:1004B000C034C134C234C234C334C434C434C53487
:1004C000C634C634C734C834C834C934CA34CA344C
:1004D000CB34CC34CC34CD34CD34CE34CF34CF3413
:1004E000D034D034D134D234D234D334D334D434DD
:1004F000D534D534D634D634D734D734D834D934A7
:10050000D934DA34DA34DB34DB34DC34DC34DD3473
:10051000DE34DE34DF34DF34E034E034E134E1343F
:10052000E234E234E334E334E434E434E534E5340F
:10053000E634E634E634E734E734E834E834E934E2
:10054000E934EA34EA34EA34EB34EB34EC34EC34B6
:10055000ED34ED34ED34EE34EE34EF34EF34EF348B
:10056000F034F034F034F134F134F134F234F23464
:10057000F234F334F334F334F434F434F434F5343F
:10058000F534F534F634F634F634F734F734F7341A
:10059000F734F834F834F834F834F934F934F934F9
:1005A000F934FA34FA34FA34FA34FA34FB34FB34DA
:1005B000FB34FB34FB34FC34FC34FC34FC34FC34BE
:1005C000FC34FD34FD34FD34FD34FD34FD34FD34A4
:1005D000FE34FE34FE34FE34FE34FE34FE34FE348B
:1005E000FE34FE34FE34FF34FF34FF34FF34FF3476
:1005F000FF34FF34FF34FF34FF34FF34FF34FF3463
:10060000FF34FF34FF34FF34FF34FF34FF34FF3452
:10061000FF34FF34FF34FF34FF34FF34FF34FF3442
:10062000FE34FE34FE34FE34FE34FE34FE34FE343A
:10063000FE34FE34FD34FD34FD34FD34FD34FD3430
:10064000FD34FD34FC34FC34FC34FC34FC34FB3429
:10065000FB34FB34FB34FB34FB34FA34FA34FA3425
:10066000FA34F934F934F934F934F834F834F83424
:10067000F834F734F734F734F734F634F634F63424
:10068000F534F534F534F534F434F434F434F33427
:10069000F334F334F234F234F234F134F134F1342B
:1006A000F034F034EF34EF34EF34EE34EE34EE3433
:1006B000ED34ED34EC34EC34EB34EB34EB34EA343D
:1006C000EA34E934E934E834E834E834E734E73448
:1006D000E634E634E534E534E434E434E334E33456
:1006E000E234E234E134E134E034E034DF34DF3466
:1006F000DE34DE34DD34DD34DC34DC34DB34DB3476
:10070000DA34D934D934D834D834D734D734D63489
:10071000D534D534D434D434D334D334D234D1349E
:10072000D134D034D034CF34CE34CE34CD34CC34B4
:10073000CC34CB34CB34CA34C934C934C834C734CC
:10074000C734C634C534C534C434C334C334C234E6
:10075000C134C134C034BF34BF34BE34BD34BD3401
:10076000BC34BB34BB34BA34B934B934B834B7341C
:10077000B634B634B534B434B434B334B234B1343A
:10078000B134B034AF34AF34AE34AD34AC34AC3457
:10079000AB34AA34A934A934A834A734A634A63477
:1007A000A534A434A334A334A234A134A034A03497
:1007B0009F349E349D349D349C349B349A349A34B7
:1007C00099349834973496349634953494349334D9
:1007D000933492349134903490348F348E348D34F9
:1007E0008C348C348B348A3489348834883487341C
:1007F000863485348534843483348234813481343E
:1008000080347F347E347E347D347C347B347A345F
:100810007A34793478347734773476347534743480
:10082000733473347234713470346F346F346E34A3
:100830006D346C346C346B346A34693469346834C4
:1008400067346634653465346434633462346234E6
:10085000613460345F345F345E345D345C345C3406
:100860005B345A3459345934583457345634563426
:100870005534543453345334523451345034503446
:100880004F344E344E344D344C344B344B344A3464
:100890004934493448344734463446344534443482
:1008A00044344334423442344134403440343F349D
:1008B0003E343E343D343C343C343B343A343A34B8
:1008C00039343834383437343634363435343434D3
:1008D00034343334333432343134313430342F34EB
:1008E0002F342E342E342D342C342C342B342B3402
:1008F0002A342A3429342834283427342734263417
:10090000263425342434243423342334223422342A
:1009100021342134203420341F341F341E341E343B
:100920001D341D341C341C341B341B341A341A344B
:10093000193419341834183417341734173416345A
:100940001634153415341434143414341334133465
:100950001234123411341134113410341034103470
:100960000F340F340E340E340E340D340D340D3478
:100970000C340C340C340B340B340B340A340A347E
:100980000A340A3409340934093408340834083480
:100990000834073407340734073406340634063481
:1009A0000634053405340534053404340434043481
:1009B000043404340434033403340334033403347C
:1009C0000234023402340234023402340234023477
:1009D000013401340134013401340134013401346F
:1009E0000134013400340034003400340034003465
:1009F0000034003400340034003400340034003457
:100A00000034003400340034003400340034003446
:100A10000034003400340034003400340034013435
:100A2000013401340134013401340134013401341E
:100A30000134013402340234023402340234023408
:100A400002340334033403340334033403340434EE
:100A500004340434043404340534053405340534D2
:100A600005340634063406340634073407340734B4
:100A70000734083408340834083409340934093494
:100A80000A340A340A340B340B340B340C340C346F
:100A90000C340D340D340D340E340E340E340F344A
:100AA0000F340F3410341034103411341134123424
:100AB00012341234133413341434143415341534FA
:100AC00015341634163417341734183418341934CE
:100AD000193419341A341A341B341B341C341C34A2
:100AE0001D341D341E341E341F341F342034203472
:100AF000213421342234233423342434243425343F
:100B0000253426342634273428342834293429340B
:100B10002A342A342B342C342C342D342D342E34D6
:100B20002F342F343034303431343234323433349F
:100B30003334343435343534363437343734383468
:100B4000393439343A343B343B343C343D343D342D
:100B50003E343F343F3440344134413442344334F2
:100B600043344434453445344634473448344834B7
:100B700049344A344A344B344C344D344D344E3479
:100B80004F344F345034513452345234533454343B
:100B900055345534563457345734583459345A34FC
:100BA0005A345B345C345D345D345E345F346034BD
:100BB000603461346234633464346434653466347C
:100BC00067346734683469346A346A346B346C343B
:100BD0006D346E346E346F347034713471347234F9
:100BE00073347434753475347634773478347834B7
:100BF00079347A347B347C347C347D347E347F3475
:100C000080340C340034643400340634003432341C
:100C10000034063404340A3408342D342D342D3491
:100C20002D342D342D342D342D342D342D342D34BC
:100C30002D342D342D342D342D342D342D342D34AC
:100C40002D342D342D342D342D342D342D342D349C
:100C500020340A3420340A342034703472346F342F
:100C60006734723461346D34203469346E346934DD
:100C7000743469346C34613469347A34653464347E
:100C800020340A3420340A3400347C08023E8600C2
:100C90008701403FF000413FF1000430F136F00C95
:100CA000890B4E2E7008F5007108F60075080A3E93
:100CB000F0000030763DF10020006C087102031D49
:100CC000632E6B08700203186A2E0A30F507003095
:100CD000F63D8A2E003076020B3003197502031C94
:100CE000842E7508F63EF000FF30763DF100710865
:100CF0006C02031D7D2E70086B020318842E0A30CF
:100D0000F5020030F63B8A2E6C08F601F6076B08F8
:100D1000F501F5077C08023E860087010F3081054A
:100D20004131003081057608F1007508F000F00EC1
:100D3000F10EF030F10570080F39F104F030F005D4
:100D40007C08023E860087017008810441317108E9
:100D500081047C08023E86008701403FF000413F4D
:100D6000F1000430F136F00C890BB22E7008F2005D
:100D70007108F300F4017C0886008701720881077E
:100D800041317308813D41317408813D08000830CC
:100D900023008C00083021008C0020008C012300EF
:100DA0008F0121008F0120008F010530210090006C
:100DB000200090013F3023008D00FF3021008D0086
:100DC00020008D01BF3021008E0020008E01210007
:100DD00095121512951115119510151020009501F9
:100DE000353098009601970121001110813143217F
:100DF000080020006B09F0006C09F100F00A0319EB
:100E0000F10A21001B08F200F3011C08F400F501AF
:100E10007408F500F40100307404F6000430750421
:100E2000F70072087607F8007308773DF90070083C
:100E30007807FA007108793DFB007A082000EB0082
:100E40007B08EC00080022008D10210029309D0055
:100E50000D308600013087008D3084000030850021
:100E600020000530ED00ED0B332F21003130001450
:100E70009D0020000530ED00ED0B3C2F21009D145E
:100E800000000000000001100010080022000D10FA
:100E9000210031309D000D308600013087008D30FB
:100EA00084000030850020000530ED00ED0B562F4A
:100EB0002100293080149D0020000530ED00ED0B4D
:100EC0005F2F21009D1400000000000081108010A1
:100ED000080022008D14210029309D000D3086006D
:100EE000013087008D3084000030850020000530FF
:100EF000ED00ED0B792F2100313000149D00200012
:100F00000530ED00ED0B822F21009D140000000044
:100F1000000001140010080022000D1421003130DF
:100F20009D000D308600013087008D308400003038
:100F3000850020000530ED00ED0B9C2F21002930AD
:100F400080149D0020000530ED00ED0BA52F210041
:100F50009D14000000000000811480100800230090
:100F60009D1CC72F19082000B500B6013508B70031
:100F70003608B800230019082000B500B60135086E
:100F8000B7003608B80081314321FF300800200047
:100F9000911ECD2F23001908080000300800200002
:100FA000B901BA01351CD82F3708B9073808BA3D3E
:100FB0000130B735B80D890BD92F0130B636B50CD5
:100FC000890BDE2F36083504031DD22F3A08B601EF
:100FD000B6073908B501B50708002000B800B70109
:100FE000381CF62F3508B6003608B7070310B50DC4
:100FF0000310B80CB808031DF02F3708080055344B
:101C7400813171218E318631C7268E318B130D301F
:101C84002000B6008630B70081310C218E3120004F
:101C9400C401C5010330BD003D08B50022088731E9
:101CA400ED278E312000BE003E08A0008731AF270B
:101CB4008E312000BD003D08C9004908FF3A031DCC
:101CC400882FCB012208BD00BE013D08B5003E08A7
:101CD400B6000330B7000030B8008731CF278E310B
:101CE40020003608803A803C031D7A2E35084B02CA
:101CF4000318BC2E20004B08503EBD00BE0120300E
:101D0400BE3D3D0886003E088700FF3081004B0839
:101D1400013EBD00003003180130BE005030BF004A
:101D24002030C0003D083F07C1003E08403DC200CE
:101D34004108860042088700FF3081004B08023EBC
:101D4400BD00003003180130BE005030BF00203009
:101D5400C0003D083F07C1003E08403DC2004108A5
:101D6400860042088700FF3081000330BD003D0833
:101D7400CB07642E2000C901882F81316B218E315D
:101D84002000BD003D08CA0081316B218E31200046
:101D9400BD004A08013EBE00003003180130BF00F8
:101DA4005030C0002030C1003E084007C2003F0848
:101DB400413DC30042088600430887003D08810076
:101DC40081316B218E312000BD004A08503EBE0097
:101DD400BF012030BF3D3E0886003F0887003D0814
:101DE400810081316B218E312000BD004A08023E02
:101DF400BE00003003180130BF005030C000203056
:101E0400C1003E084007C2003F08413DC3004208EC
:101E14008600430887003D088100962F81316B219D
:101E24008E312000BD003D08C60081316B218E310A
:101E34002000BD003D08C70081316B218E31200098
:101E4400BD003D08C800CC012208BD00BE013D080C
:101E5400B5003E08B6000330B7000030B800873143
:101E6400CF278E3120003608803A803C031D3C2F5A
:101E740035084C020318962F20004C08503EBD0034
:101E8400BE012030BE3D3D0886003E08870047085D
:101E940081004C08013EBD00003003180130BE0033
:101EA4005030BF002030C0003D083F07C1003E084D
:101EB400403DC20041088600420887004608810070
:101EC4004C08023EBD00003003180130BE00503003
:101ED400BF002030C0003D083F07C1003E08403D20
:101EE400C200410886004208870048088100033088
:101EF400BD003D08CC07262F20002108003A003001
:101F040003190130BD003D08A100962F4908003A8D
:101F140003194C2E613A0319102F043A03197E2F2A
:101F2400163A0319BF2E962F2000A10803194C2E30
:101F34000330BD003D08B50022088731ED278E31FE
:101F44002000BE003E08A000200020308500503054
:101F540084001200B000B0350F14031C0F10B0350C
:101F640000000F1000000000000000000F14031C0C
:101F74000F10B03500000F1000000000000000003A
:101F84000F14031C0F10B03500000F1000000000E8
:101F9400000000000F14031C0F10B03500000F10D8
:101FA40000000000000000000F14031C0F10B035E7
:101FB40000000F1000000000000000000F14031CBC
:101FC4000F10B03500000F100000000000000000EA
:101FD4000F14031C0F10B03500000F100000000098
:101FE4001200B0000F14031C0F10B03500000F10C6
:0C1FF4000000A00BAE2F20000F104C2EA0
:020000040001F9
:04000E00A4CFFFDF9D
:00000001FF
